:020000040800F2
:1000000000040020450200084702000847020008DB
:10001000470200084702000847020008470200089C
:100020004702000847020008470200080547000889
:10003000470200084702000847020008470200087C
:10004000470200084702000847020008470200086C
:10005000470200084702000847020008470200085C
:10006000470200084702000847020008470200084C
:10007000470200084702000847020008470200083C
:10008000470200084702000847020008470200082C
:100090006D540008470200084702000847020008A4
:1000A000470200084702000847020008470200080C
:1000B00035530008470200081D5400084702000895
:1000C00047020008470200084702000847020008EC
:1000D00047020008470200084702000847020008DC
:1000E00047020008470200084702000847020008CC
:1000F00047020008470200084702000847020008BC
:1001000047020008470200084702000847020008AB
:10011000470200084702000847020008470200089B
:10012000470200084702000847020008470200088B
:10013000470200084702000847020008470200087B
:10014000470200084702000847020008470200086B
:10015000470200084702000847020008470200085B
:0C016000AD5C0008450500082105000802
:10016C0072B6274880F30888264880F30988264809
:10017C004EF60851CEF200010860022080F314887C
:10018C00BFF36F8F03F0E4FF03F08BFD4FF055309E
:10019C001E491B4A91423CBF41F8040BFAE71C492B
:1001AC00184A91423CBF41F8040BFAE719491A4A24
:1001BC001A4B9A423EBF51F8040B42F8040BF8E775
:1001CC0000201749174A91423CBF41F8040BFAE74B
:1001DC0003F0C2FF03F0BDFF134C144DAC4203DA25
:1001EC0054F8041B8847F9E703F06AFD104C114DD5
:1001FC00AC4203DA54F8041B8847F9E703F0AABFB2
:10020C0000040020000C002000000008000000206A
:10021C000004002064690008000C0020B0110020CC
:10022C00B0110020B81A0020600100086801000815
:10023C00680100086C01000892E700F000F8FEE786
:10024C002DE9F04FC1F80CD0C3689D46BDE8F08F86
:10025C00002383F311882846A047002004F0CCF932
:10026C0004F06CF900DFFEE753B94AB9002908BF66
:10027C0000281CBF4FF0FF314FF0FF3000F00CB8DE
:10028C00ADF1080C6DE904CE05F0B0FBDDF804E02F
:10029C00DDE9022304B07047704700BF002301461C
:1002AC001A46184600F0E0B838B50A4C0A4D641BE3
:1002BC00A4100AD004F18043013B05EB8305013CFB
:1002CC0055F804399847002CF9D1BDE8384005F0B1
:1002DC00F3BC00BF6C01000868010008844641EAC9
:1002EC00000313F0030349D1403A23D30B68036096
:1002FC004B6843608B688360CB68C3600B69036198
:10030C004B6943618B698361CB69C3610B6A03627F
:10031C004B6A43628B6A8362CB6AC3620B6B036367
:10032C004B6B43638B6B8363CB6BC363403040314C
:10033C00403ADBD230320BD30B6803604B6843601E
:10034C008B688360CB68C36010301031103AF3D2E5
:10035C000C3205D351F8043B40F8043B043AF9D273
:10036C00043208D0D2071CBF11F8013B00F8013B46
:10037C0001D30B8803806046704700BF082A13D353
:10038C008B07B1D010F00303AED0C3F10403D21A23
:10039C00DB071CBF11F8013B00F8013BA4D331F87B
:1003AC00023B20F8023B9FE7043AD9D3013A11F8FB
:1003BC00013B00F8013BF9D20B7803704B7843708A
:1003CC008B78837060467047F0B4860746D0541E15
:1003DC00002A3CD0CAB2034602E014F1FF3436D3F3
:1003EC0003F8012B9D07F8D1032C29D9CDB245EA8E
:1003FC0005250F2C45EA054533D9A4F1100636091D
:10040C0003F1200707EB061703F1100242E904552C
:10041C0042E902551032BA42F8D1721C14F00C0F9A
:10042C0003EB021204F00F0613D0331F23F0030367
:10043C000433134442F8045B9342FBD106F00304EB
:10044C002CB1C9B21C4403F8011B9C42FBD1F0BC7B
:10045C00704734461346002CF3D1F8E71446034694
:10046C00C2E71A462646E0E72DE9F0411D4C054649
:10047C00206890461F460E4600F042F81A4B1A6848
:10048C00D2F848311BB35A6820681F2A24DC4DB9B6
:10049C00511C0232596043F8226000F039F80020F8
:1004AC00BDE8F081012403EB820CCCF88880D3F8F2
:1004BC00881194402143022DC3F88811CCF808719F
:1004CC00E6D1D3F88C110C43C3F88C41E0E702F56C
:1004DC00A673C2F84831D6E700F01AF84FF0FF3097
:1004EC00DEE700BF30100020C85C0008704700BF7A
:1004FC00704700BF704700BF704700BF704700BF18
:10050C00704700BF0120704701207047704700BF43
:10051C00704700BF10B5054C227832B9044B13B1AB
:10052C000448AFF300800123237010BDB0110020EC
:10053C00000000006469000808B5034B1BB10349B7
:10054C000348AFF3008008BD00000000B411002088
:10055C006469000838B5194C022220464FF48051CA
:10056C0004F0B0FE204602224FF4005104F0AAFE23
:10057C00134D204602224FF4804104F0A3FE204686
:10058C0002224FF4004104F09DFE284602224FF453
:10059C00807104F097FE284602224FF4007104F09B
:1005AC0091FE284602224FF4806104F08BFE204617
:1005BC00BDE838400222082104F084BE000C014042
:1005CC0000080140704708B5FFF7FCFF08BD7047F5
:1005DC0008B5FFF7FCFF08BD38B5FFF7BBFF0322DA
:1005EC001021354804F06EFE03222021324804F01D
:1005FC0069FE03224021304804F064FE032280216E
:10060C002D4804F05FFE03224FF480712A4804F059
:10061C0059FE03224FF40071274804F053FE0322C5
:10062C004FF48041254804F04DFE03224FF4004165
:10063C00224804F047FE03220121214804F042FE27
:10064C00032202211E4804F03DFE032204211C4813
:10065C0004F038FE03220821194804F033FE03226B
:10066C001021174804F02EFE03222021144804F018
:10067C0029FE03224021124804F024FE0823002105
:10068C001048114A013B13F0FF0320F8021B22F81B
:10069C00021BF7D180250D4A094C13784FF47A7060
:1006AC0043F002031370656103F0ABFF2561BDE8F5
:1006BC00384000F0D4B900BF000C014000100140DC
:1006CC0000080140CC110020DC110020D4160020C1
:1006DC002DE9F84F894F8A4CB8460026A146894D22
:1006EC00F3B2013B062B08D8DFE813F011001A0017
:1006FC0023002C00E500EE00F70006224FF4805199
:10070C00204604F0DFFD4FF48053636123E00622A2
:10071C004FF40051204604F0D5FD4FF40053F4E79C
:10072C0006224FF48041204604F0CCFD4FF4804368
:10073C00EBE706224FF40041204604F0C3FD4FF4D2
:10074C000043E2E706224FF48071284604F0BAFD1C
:10075C004FF480736B61012003F053FFA368A26810
:10076C006FEA131312F0200F14BF0022022203F0C1
:10077C0001031343D9F8082012F0400F14BF0022D4
:10078C0004221343A26812F0800F14BF0022082227
:10079C001343D9F8082012F4807F14BF00221022D2
:1007AC001343A26812F4007F14BF002220221343CB
:1007BC00554A9168926811F4804F14BF0021402172
:1007CC0012F4004F14BF002280220B431343AA687B
:1007DC0012F0010F14BF00224FF480721343AA6869
:1007EC0012F0020F14BF00224FF400721343AA68D8
:1007FC0012F0040F14BF00224FF480621343AA6856
:10080C0012F0080F14BF00224FF400621343AA68C1
:10081C0012F0100F14BF00224FF480521343AA6839
:10082C0012F0200F14BF00224FF400521343AA6899
:10083C0012F0400F14BF00224FF48042134338F8DB
:10084C00022B9A4222D0DFF8D0A028F8023C9AF86A
:10085C000030C3B1DFF8C8B09BF80030D90712D50F
:10086C002A4802F0C1FC9BF80030DA070BD59AF845
:10087C000010274802F0B8FC9BF80030DB0702D5CB
:10088C00244802F0B1FC01238AF800300136FFF74E
:10089C0061FE082E7FF424AF1F4A137833B1013B5D
:1008AC00DBB2137003B3022003F0ABFE00F0E1F8EF
:1008BC000120BDE8F88F06224FF40071284604F0A1
:1008CC0001FD4FF4007345E706224FF48061284682
:1008DC0004F0F8FC4FF480633CE706220821204624
:1008EC0004F0F0FC082310E70C4B37F8022B013E08
:1008FC0016F0FF0623F8022BF7D1D7E7DC11002006
:10090C00000C01400008014000100140E95C0008A7
:10091C00F35C00080165000834100020CC110020A5
:10092C00D4160020014B33F810007047CC11002076
:10093C002DE9F0410F4802F057FC00240E4DDFF872
:10094C0048800E4F0E4E2146404602F04DFC384674
:10095C0002F04AFC35F8020B01F081FF01463046EB
:10096C0002F042FC0134074802F03EFC082CEAD1AC
:10097C00BDE8F081CC5C0008CC110020F05C0008D4
:10098C00E35C000801650008F35C00084FF40052BA
:10099C00034B10F0020F14BF5A611A61704700BF6D
:1009AC000010014010B5044601F02CFF0128094B42
:1009BC0007D002284FF0010208D05A6102221A61B6
:1009CC0002E0022218615A61204610BD5A6158613A
:1009DC00FAE700BF000C014001207047012070476E
:1009EC0008B5FFF7FBFF08BD704708B5FFF7FCFF24
:1009FC0008BD000013B502AB03E903000F4B1B78D5
:100A0C00B3B99DF80230009873B16AB101F0AEFD34
:100A1C0004460146009801F065FD2046009902B09D
:100A2C00BDE8104000F088B801F080FD0446F4E702
:100A3C00009801F09BFD0099F1E700BF0E16002015
:100A4C0003460A4600689988FFF7D4BF10B50446E0
:100A5C000021FFF7F5FF2146FFF7C7FF10BD08B5D2
:100A6C0001F00AFF08B901F085FFBDE80840FFF767
:100A7C00AABDFFF7ADBD704708B501F04EF9FFF701
:100A8C00FAFF4FF4FA7003F0BCFDBDE8084002F029
:100A9C00F1B8000038B501210446FFF7D1FF21461B
:100AAC000546FFF79DFF08B9002038BD21462846B2
:100ABC0000F0B4FB0028F7D02146284600F0FEFBDE
:100ACC000028F1D02146284600F00CFD0028EBD080
:100ADC00A37813B345F601439D4209D045F6DE4396
:100AEC009D4217D0B5F5B84F17D1FFF7C5FFDBE71F
:100AFC000C4A1078C0F3000383F0010363F3000089
:100B0C0010F00104107003D0074802F06DFBCBE726
:100B1C000648FAE701F02EFFC6E72046FFF75CFF18
:100B2C00C3E700BFD4160020C85F0008D95F0008D7
:100B3C000020704770470000C1F30723C3EB03127A
:100B4C00782303FB0020C9B2034B084433F8100090
:100B5C0082B002B0704700BFF85C0008014B33F85C
:100B6C00100070471C60000813B5ADF80410019913
:100B7C00FFF7E2FF00F0C6F8B0F5A04F044629D20B
:100B8C00B0F5804F80F08580DF2813D8C02872D252
:100B9C00A7280BD8A5285FD2012804D003B23BB1FB
:100BAC00032898BF0024204602B010BDBE285AD995
:100BBC000024F8E7B0F5005F06D2B0F5807F7CD258
:100BCC00E82828BF0024EEE7B0F5405F59D2C0F307
:100BDC000B0052E0B0F5AA4F19D2B0F5A84FC3B232
:100BEC0077D2B0F5A44F07D2B0F5A24F56D34AF244
:100BFC00F10040EA0324D6E7B0F5A64F5FD20124FA
:100C0C00980803F003039C4044EA401453E0B0F509
:100C1C00B24F0ED2B0F5B04F60D2B0F5AC4FC7D2D8
:100C2C00C0B200F0F1F8040204F4F85444F4005497
:100C3C00B9E7B0F5B44F56D3A0F5C0439BB2B3F5AA
:100C4C00005FB5D2C0F3042000F0DEF8000200F41F
:100C5C00F850E4B20443E9E75B34284BE4B21C5D82
:100C6C0044F480449FE75834254BE4B233F81440E5
:100C7C0044F4884497E7C03880B2FFF76FFF04460E
:100C8C0091E7C3B202054CBF43F4484443F44044DB
:100C9C0089E7C0F30B0444F4204484E7C3F38104D4
:100CAC00C0F30110640144EA0024012003F00303A3
:100CBC0000FA03F31C4344F40C44A4B273E701247C
:100CCC00980803F003039C4044EA401444F40A449B
:100CDC00F3E74AF2F40444EA032464E74AF2F0002E
:100CEC0040EA0424E9E700F00F0000F08DF8C4F3AB
:100CFC00031440EA042444F41044DEE7EB5F0008DC
:100D0C00EE5F0008822825D00CD8312863D004D897
:100D1C00292859D02A2865D0704735284DD0392834
:100D2C0018D07047E32830D004D8E02819D0E22836
:100D3C0026D07047E62832D0E72835D0E42832D1C7
:100D4C00304B5A7891072ED51B7813F0100F08BF33
:100D5C00E72012E02B4B1B7813F0030F18BFE02099
:100D6C007047284A1378D90743D4527812F0010FF0
:100D7C0019D013F0100F08BFE32018BF00207047E4
:100D8C00204B1B7813F0040FF2E71E4A1378590717
:100D9C0031D45278D20730D413F0100FEDE7194B41
:100DAC001B781A07D1D47047164A1378190726D422
:100DBC0052789207F0D5E420F5E7124B1B7813F02C
:100DCC00200F18BF292070470E4B1B7813F0200FF3
:100DDC0018BF352070470B4B1B7813F0400F18BF12
:100DEC002A207047074B1B7813F0400F18BF312097
:100DFC00704739207047E2207047E0207047E620AA
:100E0C00704700BFE4160020294B1A78510707D50C
:100E1C0000F01801082927D100F0F70040F0040079
:100E2C00110707D500F01801182926D100F0E700AA
:100E3C0040F014005B78D90707D500F01801082999
:100E4C0024D100F0F70040F00100990707D500F01D
:100E5C001803182B23D100F0E70040F01100D30643
:100E6C0048BF00F0E700704700F01401042904BFEC
:100E7C0000F0FB0040F00800D2E700F01401142948
:100E8C0004BF00F0EB0040F01800D3E700F01101B4
:100E9C00012904BF00F0FE0040F00800D5E700F087
:100EAC001103112B04BF00F0EE0040F01800D6E740
:100EBC00E416002008B500F03FF940F2FF3008BD01
:100ECC0008B5044800F0F0F8BDE80840024800F00E
:100EDC00EBB800BF00F8010800FC0108B0F5806F0A
:100EEC002DE9F0410E4602D30020BDE8F0814FF60B
:100EFC00FF734FEA400808F1006505F5FC352A88B8
:100F0C00441292B29A4204D1284600F0EFF880B213
:100F1C00EBE7A402124F04F1006404F5FC344FF427
:100F2C00806221463846FFF7D9F92B789E42DBD0F8
:100F3C0040F2FE33204608EA0303FE54002500F07D
:100F4C00B3F8795D61F0FF014B1C03D089B26019D5
:100F5C0000F0CCF80235B5F5806FF2D1D7E700BFC1
:100F6C00EC11002080B2400000F1006000F5FC3074
:100F7C000078704780B2FFF7B1BF83B25B0003F11A
:100F8C00006303F5FC331A78431C9BB25B0003F13E
:100F9C00006303F5FC33187842EA0020704738B53B
:100FAC000D4684B2C9B22046FFF798FF601C290A8F
:100FBC0080B2BDE83840FFF791BFFFF7F0BFF8B53E
:100FCC000C4680B2471CBFB243007A0003F10063A9
:100FDC0002F10062861C03F5FC3302F5FC32B6B25A
:100FEC00197892F800C0720002F10062C51C02F57B
:100FFC00FC32ADB213786A0002F1006202F5FC32E9
:10100C001B04127843EA0C230B4343EA0263A3420A
:10101C0012D0E1B2FFF762FFC4F307213846FFF7A5
:10102C005DFFC4F307413046FFF758FF210E2846F9
:10103C00BDE8F840FFF752BFF8BD00000B4BDA6873
:10104C00D2070CD4DA6851070BD4DA68D2060AD46A
:10105C00DB6813F0010F0CBF052004207047012042
:10106C007047022070470320704700BF00200240E9
:10107C0073B504460025FFF7E1FFFF2601280FD1C9
:10108C0014B9062002B070BD01950196019B1BB9E5
:10109C00FFF7D4FF013CF1E7019B013B0193F5E71E
:1010AC00002C08BF0620EDE738B5054640F6FF706A
:1010BC00FFF7DEFF052815D10B4C40F6FF702369B6
:1010CC0043F0020323616561236943F0400323610C
:1010DC00FFF7CEFF06281EBF236923F0020323610E
:1010EC003423E36038BD00BF00200240104B00F1F8
:1010FC0078429A4270B505460E4616D81F20FFF767
:10110C00B7FF052810D10B4C1F20236943F00103B6
:10111C0023612E80FFF7ACFF06281EBF236923F046
:10112C00010323613423E36070BD0720FCE700BF9B
:10113C00FEFF070000200240034B044A5A6002F1F4
:10114C0088325A60704700BF002002402301674577
:10115C002DE9F047144682781D4680468A469DF854
:10116C0020702C4B92B11C7001F078FD2A4B18802A
:10117C0004F12003DBB2072B49D8012004F007044B
:10118C00A040C0B2BDE8F04700F097BB1E78A64265
:10119C0033D1214B188801F066FD414681465046FB
:1011AC0001F05AF8814528D2AE4205F1200415D041
:1011BC0006F12003DBB2072B06D8012006F0070648
:1011CC00B040C0B200F082FBE3B2072B06D801207E
:1011DC0005F007039840C0B200F06FFB3846E4B24C
:1011EC0000F05CFB072C12D8012005F00705A84085
:1011FC00C0B2BDE8F04700F069BB04F12003DBB2DC
:10120C00072B04D8012004F00704A040F0E7BDE848
:10121C00F08700BFEC150020EE15002013B545F645
:10122C00F34304469C42084626D011D845F6D843D1
:10123C009C421CD045F6D9439C4237D045F6D74347
:10124C009C420ED125230093E1231A4621461EE031
:10125C0045F6F5439C421FD013D345F6F6439C420A
:10126C001FD0807830B30022134B1A7012E0262363
:10127C000093E523E522E9E72623E0220093E1230E
:10128C00E4E72723E422009345F6F441E523FFF736
:10129C005FFF002002B010BD2623E2220093E12361
:1012AC00D4E72723E6220093E523CFE728230093F6
:1012BC000123DFE70120EDE7EC15002038B50546EA
:1012CC008878002800F0098145F602439D422CD312
:1012DC0045F615439D4204D9A5F5B9437A3B082B35
:1012EC0023D801F0D9FA45F610437D4C9D4220805D
:1012FC0000F0C1803BD845F608439D4200F0978032
:10130C001DD845F604439D4200F081800ED845F669
:10131C0002439D4272D045F603439D4273D0208810
:10132C0001F0C6FA00F0F9FC002038BD45F6064382
:10133C009D4278D06FD9237843F0200361E045F6C5
:10134C000C439D4200F0838008D845F60A439D4229
:10135C0077D070D923786FF3000352E045F60E4333
:10136C009D427CD077D923786FF3041349E045F67E
:10137C00FB439D4253D022D845F613439D4200F0C7
:10138C0082800DD845F611439D4278D045F6124324
:10139C009D42C4D100F0C1FC23786FF3C71330E039
:1013AC0045F615439D4276D0C0F0898045F6FA4348
:1013BC009D42B4D1637843F001036370AFE745F607
:1013CC00FF439D4263D0B5F5BA4F0AD245F6FD43B3
:1013DC009D424CD047D9637823F0030343F00303B9
:1013EC00EBE745F601539D4273D0B5F5BA4F5DD985
:1013FC0045F602539D4292D100206BE0237843F0D6
:10140C00010323708BE7237843F00203F9E7237879
:10141C0043F00403F5E7237843F00803F1E763781E
:10142C0043F00203C9E7237843F01003E9E723787C
:10143C0043F04003E5E700F070FC237843F08003B1
:10144C00DFE7237823F00C0343F00C03D9E7237870
:10145C006FF34103D5E723786FF38203D1E7237849
:10146C006FF3C303CDE763786FF30003A5E76378ED
:10147C006FF34103A1E723786FF34513C1E723789A
:10148C006FF38613BDE7237823F00C03B9E7637879
:10149C0023F0030391E72378C3F3800282F0010267
:1014AC00D2B262F3820362F3C303AAE76378DA432E
:1014BC0002F0010262F3000362F341037DE700F0E6
:1014CC002CFC2378C3F3C01282F0010262F3C71321
:1014DC0097E7012001F050FA21E7012025E700BF32
:1014EC00E416002045F61643984210B50C461BD165
:1014FC0001F0BEF8A2780D4B72B100F0AA000028E2
:10150C0015BF01220022352029201A7001F080F825
:10151C0001F01AF9002010BD1B78002B14BF3520E8
:10152C00292001F07DF8F3E70120F4E7F015002005
:10153C00014B1860704700BFF4150020024B18686F
:10154C0008B1036818477047F4150020F8B5194B1B
:10155C0005461B68002B2BD0174A127842B1174A4C
:10156C0092F90020002ABFBF027842700522027057
:10157C00134C5B68284698472378580718D5D90729
:10158C0002D5104801F030FE00260F4F2378DA0701
:10159C0003D5A95D384601F027FE0136082EF5D19A
:1015AC002378DB0704D5BDE8F840084801F01CBEE1
:1015BC00F8BD00BFF415002090110020E4160020A7
:1015CC00D41600201C6000082E600008016500087D
:1015DC00054B1988814205D01880044B1B680BB150
:1015EC00DB681847704700BFFA150020F41500207F
:1015FC00054B1988814205D01880044B1B680BB130
:10160C001B691847704700BFF8150020F41500201F
:10161C007047704708B5FFF7FCFF08BD704708B569
:10162C00FFF7FCFF08BD08B5FFF7F2FFFFF7F2FF6D
:10163C0008BD0120704708B5FFF7FBFF08BD08B5D2
:10164C0001F0DAFAFEF7C8FF01F0E2FDFFF7E7FF61
:10165C0008BD000038B50E4C05462378580711D547
:10166C00D9070FD50B4801F0BFFD2378DA0709D550
:10167C002946094801F0B8FD2378DB0702D5074855
:10168C0001F0B2FD2846BDE83840FFF77FB900BF36
:10169C00D416002034600008F35C000801650008D3
:1016AC002DE9FF47FFF714F8FFF7C5FF00284DD0D1
:1016BC00DFF8C89000254E46DFF8C480EFB23846FC
:1016CC00FFF730F939F8024B824684423BD098F848
:1016DC0000309B0701D5FFF72BF984EA0A04A3B26B
:1016EC00002201242342D1B228D01AEA040F14BFDD
:1016FC00012300238DF800108DF802308DF8017055
:10170C0001F0ACFA6B4640F00100ADF8040093E830
:10171C00030000F037F836F815305C4026F8154019
:10172C00FFF70CFF144C2378834222D0FFF706FFFF
:10173C00207004B0BDE8F047FFF78CBF01326400A5
:10174C000F2AA4B2CED10135082DB7D14FF6FF73B5
:10175C00ADF8083000238DF80A3001F07FFA40F024
:10176C000100ADF80C0004AB13E9030000F00AF81B
:10177C00D6E704B0BDE8F087FC150020FE1500206C
:10178C00D416002084B06B46002283E80300ADF829
:10179C000E2093E8030004AB0290ADF80C1013E993
:1017AC00030004B000F05ABD008800F001BF000037
:1017BC0010B5044600283BD0031FDBB2A02B14D875
:1017CC0001F08EFFA0BB1B4B2146186801F0F6F808
:1017DC0020B1204600F024FF00F0B6FF204600F0B8
:1017EC0017FFBDE8104000F0AFBF00F12003DBB2E3
:1017FC00072B07D800F007040120A040C0B200F06E
:10180C003DFFEEE700F15B03DBB2022B05D8BDE830
:10181C001040094AD05CFFF7DBBE5834E4B2162CFA
:10182C0006D8064B33F81400BDE81040FFF7E0BEB5
:10183C0010BD00BF38100020476000084A60000847
:10184C0008B5034648B3021FD2B2A02A05D800F04F
:10185C00E7FEBDE8084000F077BF00F12002D2B2ED
:10186C00072A07D800F0070301209840C0B200F007
:10187C000DFFEEE700F15B02D2B2022A04D8BDE8FC
:10188C0008400020FFF7A4BE5833DBB2162B04D857
:10189C00BDE808400020FFF7ABBE08BD10B50446FC
:1018AC00FFF786FF392C0CBFA020012002F0A9FE07
:1018BC002046BDE81040FFF7C3BF08B528B100F0C3
:1018CC00DDFEBDE8084000F03FBF08BD08B528B1FB
:1018DC0000F0DCFEBDE8084000F036BF08BD2DE985
:1018EC00F04790F80690857807460C464FEA191990
:1018FC000DB100F0E9FE00F0B1FE8046A0B14DB391
:10190C00C4F3072303F0F003402B04D004F12003AD
:10191C00DBB2072B1ED9022000F05CFF00F09EFE0C
:10192C0080F001005FFA80F8C4F303330F2B45D825
:10193C00DFE813F01300130068006800C0004400D7
:10194C0044004400D6002D013E013E0197014400A5
:10195C004400A0014FF00008E6E7C4F30723C4F3EA
:10196C00032613F0F00F18BF36015FFA84F9A5B106
:10197C0066B109F12003DBB2072B304602D9B9F16D
:10198C00000F07D100F07AFE00F0DEFE4846FFF7AC
:10199C000FFF13E000F088FEF6E74846FFF750FF14
:1019AC0066B109F12003DBB2072B304602D9B9F13D
:1019BC00000F24D100F06AFE00F0C6FEC4F303341D
:1019CC00083C032C03D8FFF7B9FDFEF7DFFFB8F195
:1019DC00000F00F0568100F039FE10F0010040F0CD
:1019EC005081B87000F02AFE00F042FD384600F03D
:1019FC005BF900F023FEBDE8F04700F043BD00F0BA
:101A0C005BFED9E7C4F3072303F0F003C4F303260A
:101A1C00202B5FFA84FA18BF3601BAF1000F0DD0F3
:101A2C00BAF1010F2CD0BDB3B9F1000F2CD0BB799A
:101A3C00D9072FD56FF30713BB7125E09DB1B9F111
:101A4C00000F06D100F05CFE3043C0B2FFF735FF4B
:101A5C00B4E7B9F1010FF5D100F052FE3043C0B23A
:101A6C0000F05AFEAAE7B9F1000F05D100F060FEB4
:101A7C003046FFF72BFFA1E7B9F1010F9ED0F5E738
:101A8C0025B1B9F1050F99D83046DFE7B9F1040F4C
:101A9C0094D8EDE750467AE7B9F1000FE8D0BAF1E7
:101AAC00390F0CBFA020012002F0ABFD5046FFF710
:101ABC00C7FE83E7C4F3812343B1012B7FF47EAFD0
:101ACC0065B1C4F30900FFF793FD77E725B1C4F3C3
:101ADC000900FFF77DFD71E72846FAE72846F2E793
:101AEC0014F4407F25D1002D7FF468AFE20648BF87
:101AFC000F25C4F342104FEA8000C0B244BF8540AA
:101B0C00ED4304F00F03C4F381228340022A45EA1B
:101B1C00030008D00AD8012A02D000F081FC4DE75E
:101B2C0000F076FC4AE700F083FC47E700F06DFC20
:101B3C0044E7C4F30122D3B2F5B102F00103002B48
:101B4C003FF43CAFC4F342108000C3B204F00F006A
:101B5C0000FA03F214F010001EBF0F209840C0438F
:101B6C00C4F38123022B40EA02000AD00CD8012BCB
:101B7C0004D000F0A5FC21E75B08E0E700F098FC3E
:101B8C001CE700F0A5FC19E700F05EFC16E75FFA15
:101B9C0084F9C4F3032625B1304600F069FC4846AD
:101BAC0054E74846FFF792FE304600F06BFC05E721
:101BBC00E6B2A6F1F003042B3CD8DFE803F00310E7
:101BCC00171C250045B1B9F1040F3FF6F7AEC4F36D
:101BDC00042000F063FCF1E6B9F1050FF5E7C4F35E
:101BEC000420002DE1D000F043FCE7E6C4F3042010
:101BFC00002DF8D0D9E725B1C4F3042000F033FC54
:101C0C00DCE600F02DFCD9E64DB1C4F304252846E2
:101C1C0000F02EFC0321284600F0C2FDCEE6012088
:101C2C0000F0D8FDB9F1010F7FF6C8AE022000F02C
:101C3C00D1FDC3E63DB1B9F1000F01D03046A6E6A7
:101C4C00C4F30420CFE7B9F1000F07D0392E0CBF35
:101C5C00A020012002F0D5FC304628E7C4F3042074
:101C6C00A3E7C4F30322E1B23846FEF761FF00F0AC
:101C7C0061FBA3E6C4F30322E1B23846FEF75AFF38
:101C8C009CE6BDE8F08738B501880446807800F002
:101C9C009BFC054600F024FC00F0B6FB29462046D0
:101CAC00BDE83840FFF71BBE13B502888388044695
:101CBC00ADF80420CBB14FF6FF73BDF804209A4267
:101CCC0013D0FEF7E7FE50B900F0C8FC68B1A3785A
:101CDC005BB1022002B0BDE8104000F07BBD204695
:101CEC00FFF7D1FF2046FEF7B1FE02B010BD08B5DC
:101CFC0000F0EAFC00F0FEFC00F026FD0020FFF7EF
:101D0C0067FCBDE808400020FFF772BC08B500F086
:101D1C008FFCBDE80840FFF7EABF08B500F0BEFC39
:101D2C00BDE80840FFF7F2BFC0F303330E3303F0F6
:101D3C000F020D2A10B522D8012101FA02F313F477
:101D4C00105FC4B218D140F20332134203D113F026
:101D5C0010000DD110BDF02C13D004D8E72C8CBF83
:101D6C0000200120F6E7F42C14BF00200120F1E73D
:101D7C00E72C06D9F12CF7E7C0F3C020EAE70020E6
:101D8C00E8E70846E6E707B5ADF80400019800F06F
:101D9C000FFC03B05DF804EBFFF7C6BF82B002ABDB
:101DAC0003E9030002B0704782B002AB03E9030001
:101DBC0002B0704770B5094B094E1C78094D337849
:101DCC00A34200D170BD05EBC40355F8340059682B
:101DDC000134FFF7E9FF04F00704F0E7591600207F
:101DEC005816002018160020024B18685968FFF787
:101DFC00DBBF00BF10160020224BF7B59A7912F00A
:101E0C00F00F0AD19A7842B14FF6FF7C1E4A1F4F51
:101E1C0012781F4E3978914201D103B0F0BD9888E9
:101E2C0058B319785C788DF804108DF80540BDF81E
:101E3C000450654521D006EBC20595F801E0A64596
:101E4C001BD116F832408C4217D1A978A9B9A988B0
:101E5C00091A89B2C72910D801229979094862F365
:101E6C0007119971AB7962F30713AB71FFF71CFF84
:101E7C0003B0BDE8F040FFF79DBF013202F007024E
:101E8C00C8E700BF10160020591600205816002075
:101E9C00181600202DE9F04F0446C44E00688FB090
:101EAC000890B18830882378627894F80280B4F86E
:101EBC000490ADF8040096F800E096F801C03546A1
:101ECC00002900F009814FF6FF7B80B2584500F0E5
:101EDC000381B778002F00F0FF80A9EB0101B079E6
:101EEC0089B2C72900F0F00A00F2A480BAF1000F01
:101EFC0058D18DF808E08DF809C0BDF80810C2461D
:101F0C0059451CD08DF820308DF821203188BDF832
:101F1C0020C08C4513D1B8F1000F40F06281012331
:101F2C0063F30710B071FFF75FFF3046FFF7BCFE9D
:101F3C00B379A371002738460FB0BDE8F08FB9F123
:101F4C00000F40F05281B8F1000FF3D0AB7943F0A1
:101F5C000103AB71EEE700EBC10595F801C09445A8
:101F6C0006D110F831C09C4502D1AD78002DE1D1DD
:101F7C00013101F007014CE110F4706F00D07BB11E
:101F8C002033DBB2072B0BD92046FFF78DFEBA4668
:101F9C0006E010F4706FF3D0A27912F0F00FEFD1CD
:101FAC005746C8E78DF80CE08DF80DC0BDF80C1045
:101FBC00594516D08DF820308DF821203188BDF888
:101FCC0020C08C450DD1B8F1000F0AD1A07120466C
:101FDC00FFF76AFE2368336063687360FFF704FFE2
:101FEC00A9E78DF820308DF821200898FFF7CBFE5B
:101FFC00E0B1B8F1000F19D0AB791F2B0CD92A889E
:10200C00ADF82C90ADF8282000228DF82E308DF8EC
:10201C002A200AA8FFF748FE23682B6063686B60D0
:10202C00FFF7EAFEFFF7E0FE012784E72046FFF703
:10203C003BFEF9E7BAF1000F16D18DF820308DF880
:10204C00212008AB8DF82280ADF8249093E8030092
:10205C00FFF7A4FE3046FFF727FEC6F800A0C6F82F
:10206C0004A0FFF7C1FE9BE78DF810E08DF811C0BE
:10207C00BDF81010594514D08DF820308DF8212062
:10208C003188BDF820C08C450BD1B8F1000F08D1B8
:10209C00A0712046FFF708FEC6F80080C6F8048041
:1020AC0049E78DF820308DF821200898FFF76BFE5A
:1020BC000028BBD0B8F1000FB8D0AB791F2BABD92F
:1020CC002A88ADF83490ADF8302000228DF83630E7
:1020DC008DF832200CA89DE7002969D04FF6FF70CF
:1020EC008DF814E08DF815C0BDF8146086425FD0F1
:1020FC00AF78002F5CD1A9EB010189B2C72944D874
:10210C004746002F92D08DF818E08DF819C0BDF815
:10211C001810814227D08DF820308DF82120298885
:10212C00BDF8200088421ED1AB79DA0716D413F023
:10213C00F00F13D003F0F002F02A1CBFC3F303120C
:10214C000132A3711CBF62F30713A3712046FFF782
:10215C00ABFD23682B6063686B603FE723682B60E3
:10216C0063686B60E7E68DF820308DF821200898C5
:10217C00FFF709FE00287FF44FAFAB79204643F000
:10218C000103AB71FFF790FDD5E68DF820308DF88B
:10219C002280ADF824908DF8212008AB93E8030041
:1021AC00FFF7FCFD2F606F6018E700BF10160020D2
:1021BC00B8F1000F3FF43AAF8DF820308DF82120A4
:1021CC000898FFF7E0FD074600283FF42FAF23687F
:1021DC001D482B6063686B60FFF7E6FAFFF70CFE97
:1021EC00FCE6B9F1000F3FF4B1AE4FF6FF718DF87C
:1021FC001C308DF81D20BDF81C0088423FF4A3AEA6
:10220C00B8F1000F7FF4A2AE104811490678097896
:10221C001048B1427FF49FAE8DF820308DF821200C
:10222C00089800F0C5F9C0F30332C3B2032A3FF695
:10223C00ABAE01A151F822F0851F0008851F0008E4
:10224C009F1F00089F1F0008101600205816002022
:10225C005916002018160020C8207047F0B587B01A
:10226C006C4684E803002046FFF714FE2D4E07460B
:10227C002D4D88B1BDF80020BDF80430ADF810200C
:10228C0043B14FF6FF7392B29A4203D094E8030025
:10229C00FFF78AFD254C3EE004AB94E8030083E88D
:1022AC000300BDF80420BDF81010ADF80C10002A86
:1022BC00F0D04FF6FF7289B29142EBD03478297886
:1022CC00621C02F007028A420BD003CB174F32700C
:1022DC0007EBC40C47F83400CCF80410FFF76AFD88
:1022EC00D8E7FFF71AFD124B37702F701F605F6035
:1022FC00D0E704EBC000FFF7CDFD80B12B7804EBE9
:10230C00C30254F833005168FFF74EFD2B780133AC
:10231C0003F007032B70287833788342E9D107B098
:10232C00F0BD00BF581600205916002018160020CA
:10233C0010160020F8B5034660B1002501261C4696
:10234C0014F8010B732806D8042828D201280FD0C2
:10235C00022827D0F8BD75283DD032D300F17C037C
:10236C00DBB26F2BF6D800F07F00FFF769FA0EE0B6
:10237C009C1C5B7803F12002D2B2072A0ED803F022
:10238C0007039840C0B200F0A5F900F0DDF92F4624
:10239C00013FFFB2FF2F21D12346D0E71846FFF7AC
:1023AC0007FAF4E758789C1C00F12003DBB2072BEA
:1023BC00DBD800F0070006FA00F0C0B200F092F98A
:1023CC00E3E75F789C1C013FFFB2FF2FDFD00220B8
:1023DC0002F017F9F7E79C1C5D78D8E7022002F0B1
:1023EC0010F9D5E7704708B5FFF7FCFF08BD0000F2
:1023FC0008B5FFF7F8FF034B1860BDE80840FFF77E
:10240C0076BC00BF5C1600207047FFF7F1BF0000E0
:10241C00024B1B681843FFF7EBBF00BF5C16002094
:10242C00024B1B681840FFF7E3BF00BF5C1600208F
:10243C00024B1B685840FFF7DBBF00BF5C16002047
:10244C0008B5FEF7AFFA08BD08B5FFF7F9FF034B67
:10245C001860BDE80840FFF74ABC00BF60160020BA
:10246C000020FFF7F1BF012303FA00F0FFF7ECBFE8
:10247C00012303FA00F0024B1B681843FFF7E4BF7B
:10248C0060160020012303FA00F0034B1B6823EABB
:10249C000000FFF7D9BF00BF60160020012303FA2C
:1024AC0000F0024B1B685840FFF7CEBF60160020AF
:1024BC00024B1B681843FFF7C7BF00BF6016002014
:1024CC00024B1B681840FFF7BFBF00BF601600200F
:1024DC00024B1B685840FFF7B7BF00BF60160020C7
:1024EC007047000037B501220024C0F30723C3EB6B
:1024FC000313184400F0FF0000F007039A40C008D3
:10250C00094B00EB8000D2B21844057821FA04F391
:10251C0043F300036B40134001346B40052C00F86F
:10252C00013BF2D103B030BD641600200022C0F391
:10253C000723C3EB031313B5184400F0FF0000F09E
:10254C0007040949C00800EB80000144104611F84B
:10255C00013BE34003F00103934001321843052A89
:10256C00C0B2F4D102B010BD6416002073B51F24A4
:10257C000D4BADF804001E680C4B1B681E4326FA6D
:10258C0004F3DB07E5B206D414F1FF34F7D20025CF
:10259C00284602B070BD01992846FEF7E5FA80B2D4
:1025AC000128F1D0F4E700BF601600205C16002073
:1025BC0007B5ADF804000198FFF7D8FF019903B0F7
:1025CC005DF804EBFEF7D0BA13B5104BADF8041060
:1025DC001B782BB1019802B0BDE81040FFF7E8BFA3
:1025EC0070B10198FFF7C2FF044601460198FFF74E
:1025FC0079FF2046019902B0BDE81040FEF7B4BA4D
:10260C000198FFF793FF0446F3E700BF0E16002076
:10261C00024B0146186800F051BA00BF3810002078
:10262C00024B0146186800F061BA00BF3810002058
:10263C00014B186800F072BA38100020024B93F965
:10264C000000C0F3C7007047D0160020024B18786A
:10265C0000F00700704700BFD0160020034B18781D
:10266C0010F0070018BF0120704700BFD0160020E3
:10267C00014B1878704700BFD2160020024A13781D
:10268C0018431070704700BFD2160020024A13780E
:10269C0023EA000010707047D21600200022014B74
:1026AC001A707047D2160020024A13781843107023
:1026BC00704700BFD3160020024A137823EA0000AB
:1026CC0010707047D31600200022014B1A7070470F
:1026DC00D3160020024A137818431070704700BFBD
:1026EC00CF160020024A137823EA000010707047BE
:1026FC00CF1600200022014B1A707047CF16002015
:10270C00014B1878704700BFD1160020704708B5F0
:10271C00FFF7FCFF08BD000008B5044B1978814297
:10272C0002D01870FFF7F3FF08BD00BFD1160020D0
:10273C0008B5044B1A781AB100201870FFF7E7FFA0
:10274C0008BD00BFD116002010B50D4B0D491B78EC
:10275C0009780D4C0B430D49206809780B430C4943
:10276C000370097831B10B43037000F009F908B11B
:10277C00FFF7DEFF2068BDE81040FEF7E7BE00BFA4
:10278C00D2160020D316002038100020CF160020BF
:10279C00D1160020704708B5FFF7FCFF08BD0000FC
:1027AC0010B5064C41EAC0012170FFF761FE94F9A7
:1027BC000000C0F3C700FFF7EEFF10BDD0160020DD
:1027CC00002008B5024B1870FFF7E5FF08BD00BFED
:1027DC00D016002008B50A4A92F9003023EA00000E
:1027EC0040B2107042070AD1DBB2834207D0C0F36B
:1027FC00C700FFF747FEBDE80840FFF7E1BF08BD83
:10280C00D0160020030C002B16BF184600231023F3
:10281C00020A1CBF1046083302091EBF10460433BF
:10282C00DBB282081EBF10460233DBB242081CBF6B
:10283C000133DBB218467047030943EA0010C0B2FB
:10284C008300801000F0330003F0CC0303435800E6
:10285C005B1003F0550300F0AA00184370470146C3
:10286C0008B5C0B2FFF7E8FF0246080AFFF7E4FF1D
:10287C0040EA022080B208BD08B50020FEF77DFBBF
:10288C004FF6EC63C31A5842584108BD0220FEF7BC
:10289C0069BB0320FEF766BB10B50420FEF762FB94
:1028AC0004462120FEF75EFB44EA002080B210BDF6
:1028BC0010B50446C1B20420FEF75CFB210A2120AE
:1028CC00BDE81040FEF756BB01460F20FEF777BB64
:1028DC0001461320FEF773BB0020FFF7F9BF08B5C4
:1028EC000020FFF7F1FFFFF7F7FF08BD10B500243C
:1028FC00FEF7E6FA4FF6EC610020FEF75EFB0021D6
:10290C000220FEF737FB00210320FEF733FB184BA8
:10291C00214604201C60FEF72DFB21462120FEF7EA
:10292C0029FB21460520FEF725FB21460620FEF754
:10293C0021FBFF210720FEF71DFB21460820FEF797
:10294C003EFB21460D20FEF715FB21461820FEF715
:10295C0036FB21461720FEF70DFB21461C20FEF707
:10296C002EFB21462020FEF705FBFFF7B8FF10BD1C
:10297C005C160020FFF7BABF01460E20FEF7FABA2C
:10298C000C4B821C1B7863B10B4B93F90030002B62
:10299C00ACBF06231E230020013BDBB2FF2B02D170
:1029AC0070470623F7E712F8011B0029F4D0013019
:1029BC00C0B2F1E790110020E4160020F1B1114BE8
:1029CC001B789BB1104B93F90030002B0EDACA0820
:1029DC001D2A13D80123104401F0070103FA01F159
:1029EC008378194214BF012000207047831C0830E3
:1029FC0013F8012B8A4203D08342F9D1002070478F
:102A0C000120704790110020E41600204FF0FF3396
:102A1C00002230B5851C15F8014B8C420ED0B3F159
:102A2C00FF3F02D1002C08BF13460132D4B2062C52
:102A3C0062B2F0D15A1C01D01844817030BD002212
:102A4C0010B5831C083013F8014B8C4208BF03F8F7
:102A5C00012C8342F7D110BDCA081D2A08D801F0F9
:102A6C000703012110449940837819438170704702
:102A7C00034B1B78DB0702D5024800F0B5BB70474F
:102A8C00D416002078600008CA081D2A09D8104402
:102A9C00012201F007039A40837823EA0203837032
:102AAC007047044B1B78DB0702D5034800F09CBB36
:102ABC00704700BFD41600209660000810B4094C73
:102ACC00034624780A463CB1074C94F90040002C8C
:102ADC0002DA10BCFFF7C0BF1146184610BCFFF756
:102AEC0095BF00BF90110020E416002010B4094CD3
:102AFC00034624780A463CB1074C94F90040002C5C
:102B0C0002DA10BCFFF7C0BF1146184610BCFFF725
:102B1C0096BF00BF90110020E4160020094A831CC8
:102B2C0012784AB1084A92F90020002A04DA1E22CF
:102B3C0000211846FDF748BC0022C0F802209A80FC
:102B4C00704700BF90110020E4160020704708B5B4
:102B5C00FFF7FCFF08BD08B50020FDF717FFFFF7D6
:102B6C00F6FFBDE80840222001F04BBD70477047CE
:102B7C0010B5FFF7FBFF0024FDF7AAFDFFF7F7FFE9
:102B8C00E0B2FDF7CFFE18B90134082CF8D110BD16
:102B9C000120FCE7704708B5FFF7FCFF08BD08B53E
:102BAC00FFF77CFDFFF790FDFFF742FD0020FEF7DD
:102BBC000FFD0020FEF71CFDFEF7C0FCFDF7E6FE46
:102BCC00FFF7E9FF08BD0000202383F311884FF0C5
:102BDC00804300225B6A82F3118804499BB20B602C
:102BEC0003490B60034B1A60704700BFE0160020CE
:102BFC00D8160020DC160020FFF7E6BF38B52023DE
:102C0C0083F311884FF0804300225B6A82F31188B2
:102C1C000F4A104811689BB2994288BF0168136033
:102C2C000D4A84BF01F580310160116840F2CF7408
:102C3C005B1A002501684FF47A701944E0FB0145DA
:102C4C004FF4FA62002320462946FDF70DFB38BDF0
:102C5C00D8160020DC160020E016002008B5FFF77F
:102C6C00CDFF80B208BD10B50446FFF7C7FF001BAF
:102C7C0080B210BD704770472DE9F04F8BB0149C9B
:102C8C000F469846DDE91853834616469DF854E0E6
:102C9C0016990CB923F0100313F48062009200D043
:102CAC0014B313F0200F204618BF4FF0370A4FF023
:102CBC00000408BF4FF0570A0DF10809B0FBF1FCF6
:102CCC0001FB1C0C5FFA8CF2BCF1090F94BF303283
:102CDC005244D2B2884209F8012B04F10104B0FB32
:102CEC00F1F201D3202C11D113F0020201921ED16A
:102CFC0003F001023DB132B1BEF1000F02D113F06D
:102D0C000C0F00D0013D4FF0300C05E01046D5E71C
:102D1C0002A800F804C001341798A04201D9202C55
:102D2C00F6D130201AB1A54201D91F2C42D9DA06AE
:102D3C0020D5009A002A44D1002C42D0179AA242E6
:102D4C0001D0AC423DD1621E3AD0102943D1023C95
:102D5C00980642D41F2C18D878210AAA224402F8CB
:102D6C00201C01341F2C10D830210AAA224402F84E
:102D7C00201C01341F2C08D8BEF1000F33D02D219C
:102D8C000AAA224402F8201C01349B07324642D086
:102D9C0004EB020A5046AAEB0402002C3ED1019B24
:102DAC002BB1AAEB060A554506EB0A003DD80BB031
:102DBC00BDE8F08F0DF1080C0CF804000134B1E7FC
:102DCC0014461029C4D00229CCD11F2CDDD80AAA54
:102DDC0022446221C3E71446F5E71F2CD5D80AAA72
:102DEC0022445821BBE7590703D50AAA22442B21B8
:102DFC00C8E71A07C9D50AAA22442021C2E702F162
:102E0C000109434639462020D8474A460AEB0203BB
:102E1C00AB42F4D3BCE7A4EB060AF7E7013C02A8EB
:102E2C0043463946005DD847B4E702464346394627
:102E3C002020D8470AF1010AB5E708B100F02CBFF1
:102E4C00704700002DE9F04F1F46BC4BB1F1000953
:102E5C00904614BF83469B4600258BB0149E387851
:102E6C0060B945452CBF08F1FF322A464346494616
:102E7C000020D84728460BB0BDE8F08F252807F175
:102E8C00010706D02A466C1C43464946D8472546BE
:102E9C00E5E7002306E02D2A15D0302A0CD143F0AB
:102EAC0001030F46394611F8012B2B2A0ED0F2D80C
:102EBC00202A0ED0232A0FD0A2F13000092829D8BD
:102ECC000022069212E043F00203EAE743F0040307
:102EDC00E7E743F00803E4E743F01003E1E70A24D3
:102EEC000F46069804FB0022303A0692394611F838
:102EFC00012BA2F130000928F1D93A782E2A40D1C1
:102F0C0079787A1CA1F13000092843F4806330D819
:102F1C00002413E02A2A09D156F8042B0F46002A64
:102F2C00BCBF524243F002030692E6E7002206922F
:102F3C00E3E70A2202FB04140246303C104610F868
:102F4C00011BA1F13007092FF3D9174617F8011B04
:102F5C006A2930D018D8682924D0174617F8010BE5
:102F6C0069283CD062D8622828D1022123F00C03B6
:102F7C003DE02A2906D156F8044BBA1C24EAE47425
:102F8C00E3E73A460024E0E76C2904D07A29E4D13F
:102F9C0043F48073E2E751786C29F9D143F4407320
:102FAC00971CDBE75178682902D043F08003D5E702
:102FBC0043F0C003F4E743F40073CFE709D82528A6
:102FCC003FF460AF58287FF45DAF43F0200310212D
:102FDC00CCE7632800F0838064287FF453AF692822
:102FEC0023F010034FF00A0101D06428BED15A051A
:102FFC0048BF23F00103692803F4007201D0642850
:10300C0044D1002A7FF42BAFDA0506F1040A33D53C
:10301C0032680593069B002ACDE903434FEAD2732D
:10302C0002910193B8BF524200923EE0732800F027
:10303C0089801BD86F2801D1082197E770287FF46D
:10304C0021AF43F02103059308231022CDE903435C
:10305C000023CDE9013256F8043B2A460093494639
:10306C0043465846FFF708FE0546F8E67528B6D0E5
:10307C0078287FF407AFAAE713F0400F326801D02D
:10308C00D2B2C6E71E0648BF12B2C2E7002A7FF4CE
:10309C00E6AED80506F1040A10D50593069BCDE9DA
:1030AC000121CDE90343336800932A464346494640
:1030BC005846FFF7E1FD05465646D0E613F0400FA3
:1030CC00326808D0D2B20593069B0291CDE9034336
:1030DC0000230193A8E7180648BF92B2F3E713F058
:1030EC0002042DD001232A46079356F8040B4346BD
:1030FC004946C0B2551CD847002C3FF4B0AEDDE9B0
:10310C00063293427FF6ABAE43462A464946202010
:10311C00D847079B6C1C013307932546EFE74346C2
:10312C0049462020D8470AF102030793069B05EB7A
:10313C000A020AF1010A9A45F1D3D6E7832C00085A
:10314C00A246F0E7B246002C5AF8046B14BF214695
:10315C004FF0FF3132463144107808B1914210D112
:10316C0013F48061A2EB0602089102D0A24228BFA0
:10317C00224613F00203099311D007922A46951B9D
:10318C0014E00132E8E7434649462020D847079B24
:10319C00591C07910699EA189942F4D8EFE713469F
:1031AC00AD1AF5E71C4643464946D847AA1916F806
:1031BC00010B28B1089B002BF5D0631E002CF1D11C
:1031CC00099B1546002B3FF477AF079B9C1A06E032
:1031DC002A466E1C434649462020D8473546069A57
:1031EC0063199342F4D367E70FB41FB506AA52F8DC
:1031FC00043B02A90392009204484FF0FF32FFF700
:10320C0021FE05B05DF804EB04B07047472E0008B2
:10321C0008B5FFF731FB08B9FFF7ACFBFFF736FB3E
:10322C00074B1870FFF738FB064B1880FFF731FB84
:10323C00FFF7EBF8044B1868BDE80840FFF700B93E
:10324C00D4160020E41600206016002010B50146AC
:10325C0004460548FFF7C8FF0120A040FFF7D5F84A
:10326C00BDE81040FEF759BDDF650008431F10B5DF
:10327C003E2B00F22A82DFE813F0250116012B0108
:10328C004A002802280214012802280254012802AC
:10329C006301A301280228022802280283012802C4
:1032AC00280272012802400128023F002602260251
:1032BC002602260226022602260226022602B30136
:1032CC00280225010E0128022802280228022802C1
:1032DC0028022802280228022802B3012802280208
:1032EC0014012802230223022302230223022302B5
:1032FC00230223022302B301BB48FFF775FF00F042
:10330C0042FAFEF71BF9FDF741FB012010BDB7484F
:10331C00FFF76AFFB648FFF767FFFFF7BAFA0146F7
:10332C00B448FFF761FFB448FFF75EFFFFF7AEFA52
:10333C000446B248FFF758FF2146B148FFF754FF47
:10334C00AD48FFF751FFAF48FFF74EFF04F0010106
:10335C00A848FFF749FFA848FFF746FFAA48FFF720
:10336C0043FFC4F34001A348FFF73EFFA248FFF719
:10337C003BFFA648FFF738FFC4F380019D48FFF7D9
:10338C0033FF9D48FFF730FFA148FFF72DFFC4F333
:10339C00C0019848FFF728FF9748FFF725FFFFF774
:1033AC007BFA04469B48FFF71FFF21469448FFF722
:1033BC001BFF9148FFF718FF9748FFF715FF04F024
:1033CC0001018C48FFF710FF8B48FFF70DFF934866
:1033DC00FFF70AFFC4F340018648FFF705FF864854
:1033EC00FFF702FF8E48FFF7FFFEC4F30021814870
:1033FC00FFF7FAFE8048FFF7F7FE8A48FFF7F4FE66
:10340C00C4F340217B48FFF7EFFE7B48FFF7ECFE4F
:10341C008548FFF7E9FEC4F380017648FFF7E4FE28
:10342C007548FFF7E1FE8148FFF7DEFEC4F3C001EB
:10343C007048FFF7D9FE7048FFF7D6FE7C48FFF7BF
:10344C00D3FEC4F300116B48FFF7CEFE6A48FFF7BA
:10345C00CBFE7848FFF7C8FEC4F340116548FFF770
:10346C00C3FE6548FFF7C0FE7348FFF7BDFEC4F30B
:10347C0080116048FFF7B8FE5F48FFF7B5FE6F4854
:10348C00FFF7B2FEC4F3C0115A48FFF7ADFE5A481D
:10349C00FFF7AAFE39E76A48FFF7A6FEFFF76AFABC
:1034AC0033E76848F4E7684A6848137823F00F0359
:1034BC001370FFF799FE6648FFF796FE0120654BE7
:1034CC00187023E76448FFF78FFEFDF7D5FA1CE769
:1034DC005D4C2378C3F3000282F0010262F3000317
:1034EC002370DB0701D55D48D2E75D48FFF77CFE12
:1034FC00237823F00E03237007E7534C2378C3F390
:10350C00400282F0010262F341039807237006D552
:10351C005448FFF769FE237843F00103EBE7524868
:10352C00B6E7494C2378C3F3800282F0010262F3C0
:10353C0082035907237001D54C48EAE74C48A7E7AA
:10354C00414C2378C3F3C00282F0010262F3C3033F
:10355C001A07237001D54748DBE7474898E74748E7
:10356C00FFF742FE4648FFF73FFE4648FFF73CFE9A
:10357C004548FFF739FE4548FFF736FE444887E7D4
:10358C004448FFF731FEFDF7D9FF01464248FFF7EB
:10359C002BFE424B42481978FFF726FE414B42481E
:1035AC001978FFF721FE414B41481978C909FFF7FB
:1035BC001BFEFFF723FB01463E48FFF715FEA4E672
:1035CC00FEF7ABFB39490B78C3F3C01282F0010252
:1035DC0062F3C7130B701B064CBF3748374857E7CD
:1035EC000020FFF733FE90E69F630008B4600008EC
:1035FC00BF600008CF60000801650008D2600008B9
:10360C00F35C0008E5600008EF600008F960000852
:10361C00056100080E610008226100083B6100088A
:10362C005261000864610008766100088861000836
:10363C009A610008A4610008B6610008D261000814
:10364C00DA610008EB610008D4160020AF630008B3
:10365C00CA630008E6160020CE630008EA6300087F
:10366C00F663000803640008106400081E64000878
:10367C002D6400083D640008496400085664000885
:10368C0065640008A0640008C964000803650008AC
:10369C003B6500084765000855650008901100203F
:1036AC006F6500082418002086650008E4160020C9
:1036BC0099650008B1650008C8650008D265000866
:1036CC003938C0B28DE71D38FBE70248FFF78CFD97
:1036DC0000201BE6DD6500080020704700207047C5
:1036EC00214B70B51C7805461E4624B1012C12D016
:1036FC00002018700EE0FEF7BBFF222832D12846BE
:10370C00FFF7EAFF18B92846FFF7B0FD00E00120EB
:10371C0000F0010070BDFEF7ABFF2228284605D152
:10372C00FFF7DAFF0028EED02046F1E7FFF7D6FFCF
:10373C00C0B9142D0ED009D80B2D0ED10B48FFF7A4
:10374C0053FD0B48FFF750FD0120E3E7292D01D075
:10375C00382DF2E700203070DCE70648FFF744FD17
:10376C000020D7E72046D5E7E6160020AF63000817
:10377C00CA630008DD65000870470220FDF706B932
:10378C000020FDF703B970477047000038B5084CAE
:10379C000020254645F8040F42EA01202A46194626
:1037AC0000F0D2FA20606068002818BF204638BDAF
:1037BC000818002090F87A10074A0229137807D1CC
:1037CC0003F0FB03012B05D15278044B1A707047A0
:1037DC00024A1370704700BF5E1800203C1800208E
:1037EC0038B5054605292DD8DFE801F02F2C032F1D
:1037FC002D36202383F31188214C224A012101F01C
:10380C00D1F9214A0221284601F0CCF904F14402F5
:10381C0094F8B410284601F0C5F994F8B51004F1E9
:10382C006802284601F0BEF994F8B61021B104F1F3
:10383C008C02284601F0B6F9144800F08AFB0023EC
:10384C0083F3118838BDFFF798FF202383F3118889
:10385C000E4800F05BFBF2E7202383F311880B4842
:10386C0000F06CFB002383F31188FFF798F9FFF746
:10387C0087FFFDF763FEBDE83840FDF787B800BF52
:10388C003C100020E46500080866000810110020B8
:10389C0008B5202383F31188034800F091FB002323
:1038AC0083F3118808BD00BF1011002070B50446C9
:1038BC0006480D46C3680BB100F050FD2B4621465F
:1038CC00BDE87040024A014800F0FEBC28180020F8
:1038DC00E138000870B52023064683F3118803787D
:1038EC00042B03D0002383F3118870BD144B1B7879
:1038FC00DB09F7D1134C2278002AF3D0124B1B783A
:10390C00002BEFD003899B0704D408230F4A012115
:10391C0001F098F94FF4FA6340F2E7300021247873
:10392C004FF47A72A4FB034520184FF0000345EBCB
:10393C000101FCF799FC31468000FFF7B7FFD1E796
:10394C00E416002024180020901100203D180020BF
:10395C00F8B590F87430044603F07F02212A77D131
:10396C0013F0800325D0002B72D090F8750002283C
:10397C0019D003280ED001286AD194F878302BB9CD
:10398C00474AA2662022E2662367F8BD0023C4E9F9
:10399C001A33F9E7B4F87830002B59D10120414A99
:1039AC00E066A266F0E701203F4BE066A3660023C9
:1039BC00EAE790F875300A2B41D00B2B0DD0092B70
:1039CC0046D190F87830012B42D8384B83660223CD
:1039DC00C366374B23670120D7E7B0F8783053BB69
:1039EC0090F876502F4B002D14BF01210021197037
:1039FC00304B1A7861F3C7121A701CD12A4B1A7803
:103A0C00CAB1202282F311881E784FF4FA6340F277
:103A1C00E7300021A6FB036730184FF47A724FF0A1
:103A2C00000347EB0101FCF71FFC21468000FFF768
:103A3C003DFF85F311880023C4E91A33CAE71D49F9
:103A4C0090F877200D78184BED091A70F3D1D7E761
:103A5C0040F28163B4F874209A4216D194F879201C
:103A6C00616894F878304D6843EA022394F8771033
:103A7C0094F876202046A84708B9002085E74368CB
:103A8C00A3660368E3660023A4E70B4B93F8B630F8
:103A9C00002BF2D02046BDE8F84000F071BA00BF10
:103AAC003D18002090110020241800205E180020E2
:103ABC00C1370008E41600203C10002070470000BD
:103ACC0070B5194C064604F10803A36504F11C03F8
:103ADC00C4F8803004F13003C4F8A03004F1B00510
:103AEC00D4342946204600F0CFF929464FF48055AE
:103AFC0020460E4C00F0F2F906224FF4805120467D
:103B0C0001F0E0FB40F6B830656100F07AFD084941
:103B1C00304601F031F802222946204601F0D2FB52
:103B2C000022044BDA6070BD3C10002000080140FC
:103B3C002C66000828180020014B1878704700BF2D
:103B4C003C18002070B52023044683F31188204DC7
:103B5C002B782E46042B25D11E4A2B8992F9002056
:103B6C00002A23DA1C4A127802B35A0710D42023F5
:103B7C0022460221164801F065F82246174B04F143
:103B8C00200152F8040B8A4243F8040BF9D109E0E6
:103B9C006B694FF0FF3158690C3000F03FFD2B780A
:103BAC00042BE4D0002383F3118870BD9B0703D44E
:103BBC00082322460121DDE733694FF0FF315869B4
:103BCC000C3000F02BFD3378042BEBD1F0E700BF69
:103BDC00F0190020E4160020901100203D18002060
:103BEC007047000007B52023024683F311880A486A
:103BFC000378042B05D0002383F3118803B05DF800
:103C0C0004FB0323ADF80520022101AA8DF8043032
:103C1C0001F018F8EFE700BFF019002007B52023DA
:103C2C00024683F311880A480378042B05D000233D
:103C3C0083F3118803B05DF804FB8DF80430ADF804
:103C4C000520032301AA022100F0FCFFEFE700BFCF
:103C5C00F019002007B58DF8070006480122D0F8AE
:103C6C00D4300DF107015B68D430984740B203B0F3
:103C7C005DF804FB3C10002010B5064888B0D0F865
:103C8C00D43020221C6A69460023D430A04708B0E7
:103C9C0010BD00BF3C100020FFF7DCBF7047704721
:103CAC00704708B5FFF7FAFF01F09DFEFFF7F7FF2D
:103CBC0008BD08B501F099FEFFF7F2FF08BD000042
:103CCC0070B500F049FD00F065FAFDF7F3F8FDF76B
:103CDC00AAFC1848FFF7F4FE642000F092FC16488A
:103CEC00FFF782FA134CFDF7AAFC1448FDF720FCF1
:103CFC00FFF742FD1248FFF777FA2546114E23785D
:103D0C00052B07D13046FFF76FFA2B78052B06D021
:103D1C00FEF71AFDFDF7C4FCFFF7AEFFEFE7FEF769
:103D2C001AFFFEF725FF0028EFD0284600F09CFF75
:103D3C00EBE700BFF01900203C660008941100204E
:103D4C004D6600085E660008030A032B12D006D8E5
:103D5C00012B20D0022B21D00020034619E0212B6F
:103D6C0011D0222BF8D10229F6D80E4B0E4853F85D
:103D7C00213006E0C0B20328EED80C4B0C4953F8A6
:103D8C002030405C05E00229E6D80920094B53F8A5
:103D9C002130136070471220074BFAE75B20074B6A
:103DAC00F7E700BF846600089066000864660008A8
:103DBC0074660008786600081067000893660008AF
:103DCC0013B5446BE36F1A681178042915D1217A65
:103DDC00022912D11979012312898B4013420CD17B
:103DEC0001A904F1440000F0BBFD024628B1E46FC8
:103DFC00019B2179206800F025FF02B010BD0C302A
:103E0C0000F040BD4FF0FF330C3000F03BBD4430B0
:103E1C0000F00EBE4FF0FF33443000F009BE0C3002
:103E2C0000F013BD4FF0FF310C3000F00EBD4430EC
:103E3C0000F0DEBD4FF0FF32443000F0D9BDC26F50
:103E4C0070B5136805461978042901D0012070BD9E
:103E5C00017A0229FAD1012012795C899040044040
:103E6C00F4D105F10C0000F0ABFC02460028EDD0BB
:103E7C00EE6FAB6A3068043B717900F0D1FE2046DE
:103E8C00E5E7406BFFF7DBBF7FB5034601260D4628
:103E9C0004460F4A43F8042B43600E4B0672029003
:103EAC000193CB680C3000934B690A6A314600F0E1
:103EBC0065FC094B02940193AB68EA6900933146A7
:103ECC002B6904F1440000F028FD04B070BD00BF64
:103EDC00086800088F3E0008CD3D00080B682022C2
:103EEC0082F311880A7903EB820290624A791132CB
:103EFC0043F822008A7912B103EB82039862022301
:103F0C00C1670372002383F31188704738B50446E8
:103F1C0001250221043000F0DBFB04F10C002575B7
:103F2C006FF0010100F0ADFB84F84C5004F144003B
:103F3C006FF00101BDE8384000F0A3BB10B50121C2
:103F4C000446043000F0C4FB0023237584F84C3085
:103F5C0010BD38B5044600250C3000F026FC04F1E9
:103F6C004400257500F0F0FC201D84F84C50012114
:103F7C0000F0AEFB2046BDE83840FFF760BF000004
:103F8C0090F8743003F06003202B09D190F8753051
:103F9C00202B05D3212B05D9222B4FF0000309D060
:103FAC0000207047054B83660723C3660023036715
:103FBC0001207047C0E91A33F9E700BFA8110020AF
:103FCC00C36F73B51A6804461178042927D1017A96
:103FDC00022924D11979012315898B401D401ED14A
:103FEC0000F14406304600F06BFDC0B1304601A92B
:103FFC0000F0B6FCE36F06461A7E4AB101981A69C6
:10400C002946121A3044FCF7DFF9E36F1B69019360
:10401C00E06F019B01793246006800F013FE02B09C
:10402C0070BD00EB81032DE9F3419E6A04460D46F9
:10403C00FEB1202383F311880821301D04EB850782
:10404C0000F046FBFB6806F144085B691B6813B182
:10405C00404600F092FC01A9404600F081FC02466B
:10406C0050B1019B2946204600F0ECFD002383F360
:10407C00118802B0BDE8F081FB685A691268002A09
:10408C00F4D01B8A013B1342F0D1F36F1B7E002B43
:10409C00ECD104F17402E5E7113110B550F8214070
:1040AC00C4B1202383F311880421601800F010FBA5
:1040BC00E26F04F10C001368527903EB8203DB68A6
:1040CC009B69596800F086FB2046FFF7B8FE002379
:1040DC0083F3118810BD7047024B034A1A60034AE0
:1040EC005A60704774180020B81A00200050002045
:1040FC0070B50A4C431E25684E422A44013A5018AA
:10410C000B4430403340626803449A4203D39D42CF
:10411C0001D8236070BD0020FCE700BF741800209C
:10412C0008B5202383F31188FFF7E2FF002383F304
:10413C00118808BD0448054B03600023C0E9013316
:10414C000C3000F0ACBA00BF7C1800202D410008E8
:10415C0070477047FEE7000070B5082000240B4B39
:10416C001968D3E901250439954207D8D9689142D9
:10417C0009D8013803F11003F2D170BD51F8046F66
:10418C0042F8046BF0E742F8044BF0E730680008A3
:10419C0030BFFDE710B5194C00F01CF900F086F8A3
:1041AC00FFF79AFFFFF7C6FF80221549204600F063
:1041BC00C7F901230377134B134AD96844F8180C39
:1041CC0021F4E0610904090C0A431049DA60CA6859
:1041DC0042F08072CA600E490A6842F001020A601D
:1041EC001022DA77202283F82220002383F311880F
:1041FC0062B6BDE81040074800F0D2B9981900200B
:10420C00CE68000800ED00E00003FA05F0ED00E0D8
:10421C00001000E0B06800082DE9F84F4FF00008DE
:10422C00C146214CE56904F11C074FF080435B6AE1
:10423C00268D9BB29E1BAA68B6B296421CD34FF039
:10424C00200AAA68238DD5F80CB0134423852B685B
:10425C00B61ABB425F60E361C5F80C8001D100F077
:10426C0060FC89F311882869D8478AF31188E569BD
:10427C00AB689E42E5D2D8E7E269BA4212D09168A7
:10428C0023858E1B96604FF6FF72A868904228BF5C
:10429C00104602282CBF1818981CBDE8F84F80B2A5
:1042AC0000F044BCBDE8F88F68190020054B03F101
:1042BC001C02C3E907224FF0FF325A6200221A8512
:1042CC00704700BF68190020F8B5C0E903234FF010
:1042DC0080435C6A204B02291A4652F81C5F38BF97
:1042EC00022195420646A4B21F4610D1C3E907002D
:1042FC001C85C0E9005581604FF6FF70814294BF68
:10430C0060182018BDE8F84080B200F002BC188D8F
:10431C00AB68241AA4B20C1902D3E41A2D680AE073
:10432C00A34208D94FF6FF739C4294BF0019C018E2
:10433C0080B200F0FBFBAB68A342EED36B68356038
:10434C0073601E606E60B460AB681C1B4FF0FF3373
:10435C00AC607B62F8BD00BF681900201C4910B42A
:10436C000A4652F81C4F036884420DD041680B601A
:10437C000368596000219342C16003D09A68816838
:10438C000A449A6010BC704700209342CB615A607B
:10439C00E06002D110BC00F0C4BB9868A268104465
:1043AC0098604FF080430A8D5B6A9B1A9BB29842CF
:1043BC00E8D9C11A012905D8981C104480B210BC48
:1043CC0000F0B4BB4FF6FF73984228BF1846F4E7D1
:1043DC00681900200022034BC3E900339A60C3E93B
:1043EC000433704768190020002382680377054B5B
:1043FC001B6899689142FBD25A6803604260106056
:10440C00586070476819002008B5202383F3118881
:10441C00027F0023052A06D8DFE802F00B0505030E
:10442C00120E026A13604FF0FF330362FFF7DCFFDA
:10443C00002383F3118808BD026A936801339360EB
:10444C00D0E9003213605A60EDE700000023826867
:10445C000377054B1B6899689142FBD85A68036037
:10446C00426010605860704768190020054B9969CC
:10447C0008771868026853601A6098610123037703
:10448C00FBF7DEBE6819002030B54B1C87B0054623
:10449C000A4C10D0A3690A4A01A8FFF715FF284659
:1044AC00FFF7E4FF049B13B101A8FFF757FFA369C3
:1044BC00186A07B030BDFFF7D9FFF8E7681900207C
:1044CC001544000838B50C4D0162AB6981689A68D7
:1044DC000446914203D8BDE83840FFF785BF184623
:1044EC00FFF7B4FF0123AC61237701462046BDE8FA
:1044FC003840FBF7A5BE00BF68190020044B1A68B2
:10450C009B6990689B68984294BF0020012070477B
:10451C006819002010B5084C2368A0691A6854600B
:10452C00226001221A77A361FFF790FF0146A06970
:10453C00BDE81040FBF784BE68190020FFF7EABF06
:10454C00826082630022C0E90C2202228283012253
:10455C008277074A8161516902614161086150614A
:10456C0000F12402426200F12802C0E90A227047DD
:10457C006819002083680168A3F1640243F8342CA5
:10458C00026943F8642C426943F8602C034A43F8EF
:10459C00442CC268A3F14000FFF7D2BF5D020008B3
:1045AC0010B5202383F31188FFF7E4FF00210446A4
:1045BC00FFF788FF002383F31188204610BD00000D
:1045CC0038B50C4B9C69206204F12405606AA84242
:1045DC000AD1A37F1BB9D4E9043213615A610F20AD
:1045EC00BDE83840FFF742BF03686362FFF7FCFE8B
:1045FC00ECE700BF68190020202383F31188FFF734
:10460C00DFBF08B50146202383F311880820FFF78C
:10461C003BFF002383F3118808BD0000054B9B6909
:10462C0021B1036018620320FFF72EBF4FF0FF305B
:10463C00704700BF6819002003682BB1002202608C
:10464C0019621846FFF7D0BE7047000049B1064BFF
:10465C0042689B6918605A60136043600420FFF73E
:10466C0013BF4FF0FF307047681900200368984261
:10467C0006D01A680260506019621846FFF7B4BE83
:10468C00704738B504460D462068844200D138BDC9
:10469C00036823605C600562FFF7A6FEF4E7002365
:1046AC00C0E9000083607047036B1943037F01630B
:1046BC000A2B03D1036A194205D170470B2B06D183
:1046CC00036A8B4303D100230362FFF78DBE70474F
:1046DC0070B506460D460468B44200D170BDE3685F
:1046EC002B43E36015B123691D4203D0D4E90101CA
:1046FC00FFF7DAFF2468EFE7EFF30983203383F346
:10470C000988002383F311887047000010B520231B
:10471C0083F311880D4B5B6813F4006312D0EFF335
:10472C0009844FF0807344F8043CA4F1200383F314
:10473C000988FFF7E3FE18B1054B44F8083C10BD9F
:10474C00044BFAE783F31188F9E700BF00ED00E0B2
:10475C006D0200087002000808B500F01FFD064845
:10476C0000F07AFD00F0CAF900F0F5F9FFF7A1FAB4
:10477C00BDE8084000F0CBB92069000801720021A7
:10478C0030B5039C043304FB0325C0E90653049B9A
:10479C00C0E900000363059BC160C0E90422C0E9C5
:1047AC000842C0E90A11436330BD0022416AC2606D
:1047BC00C0E90411C0E90A226FF00101FFF761BFE3
:1047CC00D0E90432934201D1C2680AB9181D70476E
:1047DC000020704703691960C26800210132C26071
:1047EC00C269134482690361934224BF436A036123
:1047FC00FFF73CBF38B504460D46E3683BB1626930
:10480C000020131D1268A3621344E36207E0237AAD
:10481C0033B929462046FFF719FF0028EDDA38BDD9
:10482C006FF00100FBE7C368C269013BC3604369D9
:10483C00134482694361934224BF436A436100235A
:10484C008362036B03B11847704770B5202304468D
:10485C0083F31188866A3EB9FFF7CCFF054618B181
:10486C0086F31188284670BDA36AE26A13F8015BCF
:10487C009342A36202D32046FFF7D5FF002383F3B4
:10488C001188EFE72DE9F84F04460E4690469946FD
:10489C00202787F311880025AA46D4F828B0BBF14D
:1048AC00000F09D149462046FFF7A4FF20B18BF336
:1048BC0011882846BDE8F88FA8EB050BD4E90A133C
:1048CC005B1A9B4528BF9B46BBF1400F1BD9334657
:1048DC0001F1400251F8040B914243F8040BF9D159
:1048EC00A36A40364033A3624035D4E90A239A4286
:1048FC0002D32046FFF797FF8AF311884545D8D29B
:10490C0087F31188C9E730465A46FBF7E7FCA36AE0
:10491C005E445B44A3625D44E7E710B5029C04333C
:10492C00017204FB0321C0E906130023C0E90A331A
:10493C00039BC0E900000363049BC460C0E904222C
:10494C00C0E90842436310BD026A6FF00101C26006
:10495C00426AC0E904220022C0E90A22FFF791BE94
:10496C00D0E904239A4201D1C26822B9184650F802
:10497C00043B0B60704700207047C368C269013369
:10498C00C36043690021134482694361934224BF8D
:10499C00436A4361FFF76ABE38B504460D46E368C7
:1049AC003BB1236900201A1DA262E2691344E36241
:1049BC0007E0237A33B929462046FFF747FE002843
:1049CC00EDDA38BD6FF00100FBE703691960C268CE
:1049DC00013AC260C269134482690361934224BFE5
:1049EC00436A036100238362036B03B1184770476A
:1049FC0070B5202304460E4683F31188856A35B9B9
:104A0C001146FFF7C9FF10B185F3118870BDA36A79
:104A1C001E70A36AE26A01339342A36204D3E16974
:104A2C0020460439FFF7D1FF002080F31188EDE711
:104A3C002DE9F84F04460D4691469A464FF0200852
:104A4C0088F311880026B346A76A4FB95146204611
:104A5C00FFF7A2FF20B187F311883046BDE8F88F2D
:104A6C00A9EB0603D4E90A073F1A9F4228BF1F4649
:104A7C00402F1BD905F1400355F8042B9D4240F8FB
:104A8C00042BF9D1A36A40364033A362D4E90A233C
:104A9C009A4204D3E16920460439FFF796FF8BF361
:104AAC0011884E45D9D288F31188CDE729463A466C
:104ABC00FBF714FCA36A3D443B44A3623E44E5E788
:104ACC00D0E904239A4217D1C3689BB1836A8BB196
:104ADC00043B9B1A0ED01360C368013BC360C369CF
:104AEC001A44836902619A4224BF436A036100231A
:104AFC0083620123184670470023FBE700F04CBC8F
:104B0C000123037000234360C3600374704700F0FB
:104B1C001FBC4FF08043002258631A610222DA60F6
:104B2C0070474FF080430022DA6070474FF08043AB
:104B3C005863704710B5044690F8763080F87E3094
:104B4C0000F0AEFD63681B6813B101212046984745
:104B5C000323237010BD00F09DBD012303700023BF
:104B6C0000F12C02436000F1480142F8043B8A42F8
:104B7C009361FAD18360704738B50446202383F3E0
:104B8C00118800254160C0E90355C0E90555C0E90D
:104B9C000755C0E9095500F021FE0223237085F367
:104BAC00118838BD70B500EB8103054650690E467F
:104BBC001446DA6018B114220021FBF705FCA06939
:104BCC0018B114220021FBF7FFFB31462846BDE843
:104BDC00704000F06FBDF8B504460027836800F103
:104BEC00100503F00113836000F12C062B6873B1E0
:104BFC00586920B16FF001010C30FFF71DFD2B68D7
:104C0C00986920B16FF001010C30FFF715FD45F8E4
:104C1C00047BB542EAD12046BDE8F84000F004BE62
:104C2C00F0B4012500EB8104E4684789A4698D4048
:104C3C003D43458123600023A2606360E360F0BCC8
:104C4C0000F03CBEF0B4012500EB8104E468078958
:104C5C0064698D403D43058123600023A26063603D
:104C6C00E360F0BC00F04CBE037810B5052B0BD103
:104C7C00064C0420236C43F010032364FFF7C1FCA3
:104C8C00236C23F01003236410BD00BF005C0040B4
:104C9C002DE9F0410223002504464FF02008037053
:104CAC00C567856000F10C0600F12C0733689BB1D9
:104CBC0088F311883368586920B16FF001010C300A
:104CCC00FFF7BAFC3368986920B16FF001010C3022
:104CDC00FFF7B2FC85F3118846F8045BBE42E5D1C0
:104CEC0084F86450204600F05DFD63681B6823B1B6
:104CFC002046BDE8F04100211847BDE8F081F8B529
:104D0C000378054680F880300523037043681B68E0
:104D1C000BB1042198472026002705F10C042C35F3
:104D2C0023689BB186F311882368586920B16FF012
:104D3C0001010C30FFF780FC2368986920B16FF0FB
:104D4C0001010C30FFF778FC87F311880434AC4276
:104D5C00E6D1F8BD436890F880201B6802700BB157
:104D6C00052118477047000090F8643070B5044670
:104D7C0013B1002380F8643004F17402204600F073
:104D8C0083FD63689B68B3B994F8743013F06005C5
:104D9C0039D00021204600F0E7FD0021204600F02C
:104DAC00D1FD63681B6813B1062120469847062382
:104DBC0084F8643070BD204698470028E4D094F8FD
:104DCC007B2094F87A3043EA0223E26E9A4288BF41
:104DDC00E36694F97430E56E002B4FF0200380F2FB
:104DEC00F780002D00F0E680092284F8642083F31C
:104DFC0011880021D4E91A232046FFF723FF002352
:104E0C0083F31188D6E794F8752003F07F0343EA07
:104E1C00022340F20232934200F0B98025D8022BD3
:104E2C0000F08D8009D8002B3DD0012BB1D1754BF2
:104E3C00A3660223E36600233AE0B3F5817F00F01A
:104E4C009380B3F5407F35D0B3F5807FA1D194F832
:104E5C007630012B9DD1B4F87C3023F00203C4E9E9
:104E6C001A55A4F87C302567A9E740F201629342F9
:104E7C0009D8B3F5C06F27D2B3F5A06F89D1C4E9B7
:104E8C001A55614B14E0B3F5106F33D040F6024263
:104E9C009342CCD0B3F5006F7FF47BAF04F17F036A
:104EAC00A366012324E004F17C02A2660222E266DE
:104EBC00236784E794F87630012B7FF46AAFB4F85B
:104ECC007C3043F00203CAE794F87920616894F8C7
:104EDC0078304E6843EA022394F8771094F87620E1
:104EEC002046B04700283FF454AF4368A3660368DC
:104EFC00E366B8E72378042B10D1202383F31188C1
:104F0C002046FFF768FE85F311880321636884F857
:104F1C007F501B6821700BB12046984794F876306F
:104F2C004BB184F87F300423237063681B6813B182
:104F3C000221204698470023C4E91A33B8E794F8B5
:104F4C00783020461D0603F00F010AD500F08EFCC8
:104F5C00012804D002287FF41CAF2C4B68E72C4BA3
:104F6C0066E700F075FCF3E794F87630002B7FF4DD
:104F7C0010AF94F8783013F00F01DCD01A062046ED
:104F8C0002D500F019FDD6E700F000FDD3E794F848
:104F9C007630002B7FF4FDAE94F8783013F00F01CF
:104FAC00C9D01B06204602D500F0DEFCC3E700F09A
:104FBC00C9FCC0E7142284F8642083F311882B46C3
:104FCC002A4629462046FFF72BFE85F31188F1E689
:104FDC005DB1152284F8642083F311880021D4E993
:104FEC001A232046FFF71CFE09E70B2284F86420E5
:104FFC0083F311882B462A4629462046FFF722FECA
:10500C00E3E700BFE8680008414B0008E4680008CB
:10501C00E668000838B590F864300446152B39D88A
:10502C00DFE803F03E38383838383E38380B293949
:10503C0038383838383838383E3E90F87B1090F88D
:10504C007A20C36E42EA0122934214D2C268128AB9
:10505C00B3FBF2F502FB15356DB9202383F31188F0
:10506C002B462A462946FFF7EDFD85F311880A23C6
:10507C0084F864300EE0142384F86430202383F326
:10508C001188002320461A461946FFF7C9FD002354
:10509C0083F3118838BD036F03B198470023E7E70A
:1050AC00002100F061FC0021204600F04BFC6368FD
:1050BC001B6813B10621204698470623D8E790F8C1
:1050CC00642038B5152A044617D80123934040F6BE
:1050DC00416213421ED113F480150FD19B020CD5E3
:1050EC000B2380F86430202383F311882B462A4647
:1050FC002946FFF7A7FD85F3118838BDC3689B6966
:10510C005B68002BF9D1036F03B19847002384F837
:10511C006430F2E7002100F027FC0021204600F06B
:10512C0011FC63681B6813B10621204698470623BF
:10513C00EDE700F16043090103F56143C9B283F85F
:10514C000013012300F01F024009800000F16040B1
:10515C00934000F56140C0F8803103607047062130
:10516C0008B50846FFF7E5FF06210720FFF7E1FF2A
:10517C0006210820FFF7DDFF06210920FFF7D9FFE4
:10518C0006210A20FFF7D5FF06211720FFF7D1FFD4
:10519C00BDE8084006212820FFF7CBBF4FF0FF31B8
:1051AC000E4B1A6919611A6900221A611869D868BC
:1051BC00D960D968DA60DA68DA6942F08052DA616B
:1051CC00DA69DA6942F00062DA61054ADB69136870
:1051DC0043F480731360FFF7C2BF00BF001002409E
:1051EC0000700040194B1A6842F001021A601A68EC
:1051FC009007FCD51A6802F0F9021A6000225A6076
:10520C005A6812F00C0FFBD11A6842F480321A6003
:10521C001A689103FCD55A6842F4E8125A601A686D
:10522C0042F080721A601A689201FCD51221084A69
:10523C005A60084A11605A6842F002025A605A6871
:10524C0002F00C02082AFAD1704700BF001002408D
:10525C0000641D0000200240184B9A6942F07D0248
:10526C009A619B690268164BDA6082685A604268E0
:10527C001A60C26803F58063DA6042695A60026999
:10528C001A608269C3F80C24026AC3F80424C26948
:10529C00C3F80024426AC3F80C28C26AC3F8042875
:1052AC00826AC3F80028026BC3F80C2C826BC3F81B
:1052BC00042C426BC3F8002C704700BF0010024056
:1052CC0000080140032AF0B528D10161154B9F5C01
:1052DC00002308221D461C461E4611F0800F4FEA83
:1052EC0004144FEA03134FEA06164FEA05150CBFD8
:1052FC0044F00F043B4311F4004F0CBF46F00F0673
:10530C003D43013A4FEA4101E7D1426832402A431A
:10531C0042600268224013430360F0BD042A08BFB8
:10532C004161D3E7EA6800084FF080431A6910B571
:10533C00920708D500241C61202383F31188FEF703
:10534C006BFF84F31188BDE81040FFF7DFB9000054
:10535C000F4B0821DA691C2042F00102DA610D4A78
:10536C00DB69536843F4006353604FF0804348F6A5
:10537C009F429A624FF6FF72DA6200229A615A6378
:10538C00DA605A6001225A611A60FFF7D2BE00BF80
:10539C0000100240002004E010B5044C2046FFF73A
:1053AC00AFFB04232374024BA36110BDD41900205E
:1053BC0000080040836970B51A69DD680446154021
:1053CC00EAB2D243AE071A6103D543681B6903B135
:1053DC009847680704D563689B690BB120469847CA
:1053EC00290704D563681B6A0BB120469847EA0667
:1053FC0004D563689B6A0BB120469847EB0706D52A
:10540C0063689B681BB12046BDE87040184770BDAF
:10541C0008B50348FFF7CEFFBDE80840FFF776B9A3
:10542C00D41900200D4B00011B6D10B503F1804306
:10543C0003F5C043C418C358114403F1005303F5DA
:10544C0040535B006260002AA1EB020000DC10BD3F
:10545C000088023A43F8040BF5E700BF005C0040FB
:10546C002DE9F84F884D6C6C670505D56FF480639A
:10547C0086486B64FFF70CFC260509D52B6C83481A
:10548C0043F008032B646FF400636B64FFF737FC85
:10549C00E0040DD57C4DAB6C190406D42B6C7B4809
:1054AC0023F008032B64FFF755FC6FF480536B64F7
:1054BC00A20508D575484368DB6803B198476FF4BB
:1054CC000072714B5A64714E714F4DE004F00F0431
:1054DC00A50005F1804505F5B845D5F800A004F107
:1054EC00020906EB89031AF0800FD3F8048025D04B
:1054FC002A68D8F814303A4042F400422A601969FC
:10550C005A6818680A44801A5A6033D0B8F81020C8
:10551C00824228BF024698681A610144996020466D
:10552C00FFF780FF2B6823F4F04323F0400383F054
:10553C00300343F4004343F080032B601AF4004F14
:10554C0010D02B681AF4006F03EA070343F08003B2
:10555C002B60E1B22AD006EB8909D9F80430304629
:10556C005B689847484B5C6C2304AFD4BDE8F84F9C
:10557C00FFF7CCB8012303FA04F2338923EA0203C0
:10558C003381D8F8083013B1214630469847202390
:10559C0083F3118806EB89035B68002158690C3092
:1055AC00FFF74AF8002383F31188C7E7D8F81820CF
:1055BC00354BD2F808C01B6DE64603F1804303F56A
:1055CC00C04303EB04108368C06803F1005303F578
:1055DC004053C0F309005B004FEA500903EB890A02
:1055EC0053450EF1020E39D16FF0010E0EFB090E70
:1055FC00BEF1000F02D01B680CF8193093680344FD
:10560C00936053680344536013681B1A1360138A26
:10561C00013B9BB21382B8F81220824200D833BBF4
:10562C00012303FA04F27389023423EA020373811F
:10563C0006EB84035B68DB680BB13046984720238C
:10564C0083F3118806EB84046368986941680C3015
:10565C00FEF7F2FF002383F3118883E753F804BBB2
:10566C000EF802BC4FEA1B2B0EF801BCB8E72B68F6
:10567C0023F4904323F0700383F4405343F400432A
:10568C0043F080032B606DE7005C0040F0190020B4
:10569C000F07FFFF0148FFF760BA00BFF0190020A9
:1056AC0090F87E30024A43F08003D364704700BF09
:1056BC00005C004000EB8103F0B5DE68336813F04A
:1056CC0003035ED0022B5FD9032B0CBF4FF4C063D6
:1056DC004FF40073314A0F01146D726904F1804468
:1056EC0004F5C0443D1972B100226A60328AD0F8C8
:1056FC0084C0013222F001026244C0F8842043F0DD
:10570C00200347F804C0B269C2B1748A3E2C04F17C
:10571C00FF323BD942F01F020132214E521146EAB0
:10572C00822292B2EA60D0F88420013424F0010481
:10573C001444C0F8844043F40053AA608A0002F178
:10574C00804202F5B84210684404106848BF43F424
:10575C008043400648F2800048BF43F040031943A1
:10576C0021F4784121F0F001014323F4F16311603D
:10577C0023F0070311685B045B0C4B40034313607D
:10578C00F0BD4FF40073A5E70023A3E742F001023C
:10579C000132520202F47C42C4E700BF005C0040BC
:1057AC000080FFFF10B4002180240A4B1965596456
:1057BC00DC644468E4688C420CBF4FF41C444FF426
:1057CC001E441C644023C0F88430034B10BCC360DF
:1057DC00FFF770BF005C0040FC680008017838B52A
:1057EC000129044619D10D4B984211D10C4B0D4D8A
:1057FC00DA69132042F40002DA61DB6929640D21B5
:10580C00FFF797FC0E211420FFF793FC00232B6469
:10581C002046BDE83840FFF7C5BF38BDF019002061
:10582C0000100240005C004040230122C0F884308C
:10583C0048F28000930003F1804303F5B8431968E4
:10584C0001320143082A19601860F3D17047000037
:10585C00054B53F8210010F4405004D0B0F5805F94
:10586C000CBF012002207047005C0040054B53F830
:10587C00210010F0300003D010280CBF01200220B2
:10588C00704700BF005C00400B4B1B6D03F1804365
:10589C0003F5C04303EB01118B6802F1080103F11E
:1058AC00005303F540535B0053F8040B22F8020B32
:1058BC009142F9D1704700BF005C004000EB8100C1
:1058CC00C36810B598690268C2B15C8A1319013BB0
:1058DC00B3FBF4F39BB2890001F1804101F5B841AF
:1058EC0003820B6823F4904323F0700383F440533A
:1058FC0043F4004343F080030B6010BD0123EAE73F
:10590C0000EB810010B50C46C1684B690A8A186817
:10591C009968824228BF024620461A61FFF782FD31
:10592C00A10001F1804101F5B8410B6823F4F0436B
:10593C0023F0400383F0300343F4004343F080032F
:10594C000B6010BD890001F1804101F5B8410B6875
:10595C0023F4904323F0700383F4805343F4004307
:10596C0043F080030B607047890001F1804101F521
:10597C00B8410B6823F4F04323F0400383F0100389
:10598C0043F4004343F080030B607047890001F13E
:10599C00804101F5B8410B6803F44053B3F5405F07
:1059AC0009D00B6823F4F04323F0400343F4204365
:1059BC0043F080030B607047890001F1804101F5D1
:1059CC00B8410B6803F03003302B0BD00B6823F479
:1059DC00F04323F0400383F0200343F4004343F0EF
:1059EC0080030B607047FFF7FDBB70472DE9F04F4C
:1059FC00099F154604468E461E46002B40F0CC806F
:105A0C008A42B2FA82FC4CD9BCF1000F0BD0CCF11B
:105A1C00200801FA0CFE20FA08F802FA0CF548EA04
:105A2C000E0E00FA0CF44FEA1549BEFBF9FA1FFAF8
:105A3C0085F809FB1AE30AFB08FB210C41EA034336
:105A4C009B452AD9EB180AF1FF3004D29B4502D9A9
:105A5C00AAF102002B44A3EB0B03B3FBF9F209FBF5
:105A6C00123302FB08F8A4B244EA0344A04516D949
:105A7C002C1902F1FF3303D2A04501D9931E2C44FB
:105A8C00A4EB080443EA004027B1002324FA0CF4E9
:105A9C003C607B603146BDE8F08F5046DBE7134637
:105AAC00EEE702B9FFDEBCF1000F2ED101268B1AF6
:105ABC004FEA154EB3FBFEF8AAB20EFB183308FBE7
:105ACC0002F9210C41EA0343994561D9EB1808F11D
